{
  "_format": "hh-sol-artifact-1",
  "contractName": "MarginBank",
  "sourceName": "contracts/MarginBank.sol",
  "abi": [
    {
      "anonymous": false,
      "inputs": [
        {
          "indexed": false,
          "internalType": "enum MarginBank.Action",
          "name": "action",
          "type": "uint8"
        },
        {
          "indexed": true,
          "internalType": "address",
          "name": "srcAddress",
          "type": "address"
        },
        {
          "indexed": true,
          "internalType": "address",
          "name": "destAddress",
          "type": "address"
        },
        {
          "indexed": false,
          "internalType": "uint128",
          "name": "amount",
          "type": "uint128"
        },
        {
          "indexed": false,
          "internalType": "uint128",
          "name": "srcBalance",
          "type": "uint128"
        },
        {
          "indexed": false,
          "internalType": "uint128",
          "name": "destBalance",
          "type": "uint128"
        },
        {
          "indexed": false,
          "internalType": "uint128",
          "name": "timestamp",
          "type": "uint128"
        }
      ],
      "name": "BankBalanceUpdate",
      "type": "event"
    },
    {
      "anonymous": false,
      "inputs": [
        {
          "indexed": true,
          "internalType": "address",
          "name": "account",
          "type": "address"
        },
        {
          "indexed": false,
          "internalType": "address",
          "name": "destination",
          "type": "address"
        },
        {
          "indexed": false,
          "internalType": "uint128",
          "name": "amount",
          "type": "uint128"
        },
        {
          "indexed": false,
          "internalType": "uint128",
          "name": "balance",
          "type": "uint128"
        },
        {
          "indexed": false,
          "internalType": "uint128",
          "name": "timestamp",
          "type": "uint128"
        }
      ],
      "name": "BankTransferToPerpetual",
      "type": "event"
    },
    {
      "anonymous": false,
      "inputs": [
        {
          "indexed": false,
          "internalType": "uint8",
          "name": "version",
          "type": "uint8"
        }
      ],
      "name": "Initialized",
      "type": "event"
    },
    {
      "anonymous": false,
      "inputs": [
        {
          "indexed": false,
          "internalType": "address",
          "name": "operator",
          "type": "address"
        },
        {
          "indexed": false,
          "internalType": "bool",
          "name": "approved",
          "type": "bool"
        }
      ],
      "name": "MarginBankOperatorUpdate",
      "type": "event"
    },
    {
      "anonymous": false,
      "inputs": [
        {
          "indexed": true,
          "internalType": "address",
          "name": "previousOwner",
          "type": "address"
        },
        {
          "indexed": true,
          "internalType": "address",
          "name": "newOwner",
          "type": "address"
        }
      ],
      "name": "OwnershipTransferred",
      "type": "event"
    },
    {
      "inputs": [
        {
          "internalType": "address",
          "name": "",
          "type": "address"
        }
      ],
      "name": "bankBalances",
      "outputs": [
        {
          "internalType": "uint128",
          "name": "",
          "type": "uint128"
        }
      ],
      "stateMutability": "view",
      "type": "function"
    },
    {
      "inputs": [
        {
          "internalType": "address",
          "name": "",
          "type": "address"
        }
      ],
      "name": "bankOperators",
      "outputs": [
        {
          "internalType": "bool",
          "name": "",
          "type": "bool"
        }
      ],
      "stateMutability": "view",
      "type": "function"
    },
    {
      "inputs": [],
      "name": "candidate",
      "outputs": [
        {
          "internalType": "address",
          "name": "",
          "type": "address"
        }
      ],
      "stateMutability": "view",
      "type": "function"
    },
    {
      "inputs": [
        {
          "internalType": "address",
          "name": "_account",
          "type": "address"
        },
        {
          "internalType": "uint128",
          "name": "_amount",
          "type": "uint128"
        }
      ],
      "name": "depositToBank",
      "outputs": [
        {
          "internalType": "bool",
          "name": "",
          "type": "bool"
        }
      ],
      "stateMutability": "nonpayable",
      "type": "function"
    },
    {
      "inputs": [
        {
          "internalType": "address",
          "name": "_account",
          "type": "address"
        }
      ],
      "name": "getAccountBankBalance",
      "outputs": [
        {
          "internalType": "uint128",
          "name": "",
          "type": "uint128"
        }
      ],
      "stateMutability": "view",
      "type": "function"
    },
    {
      "inputs": [],
      "name": "guardianContract",
      "outputs": [
        {
          "internalType": "address",
          "name": "",
          "type": "address"
        }
      ],
      "stateMutability": "view",
      "type": "function"
    },
    {
      "inputs": [
        {
          "internalType": "address",
          "name": "_token",
          "type": "address"
        },
        {
          "internalType": "address",
          "name": "_guardian",
          "type": "address"
        }
      ],
      "name": "initialize",
      "outputs": [],
      "stateMutability": "nonpayable",
      "type": "function"
    },
    {
      "inputs": [],
      "name": "isWithdrawalAllowed",
      "outputs": [
        {
          "internalType": "bool",
          "name": "",
          "type": "bool"
        }
      ],
      "stateMutability": "view",
      "type": "function"
    },
    {
      "inputs": [],
      "name": "owner",
      "outputs": [
        {
          "internalType": "address",
          "name": "",
          "type": "address"
        }
      ],
      "stateMutability": "view",
      "type": "function"
    },
    {
      "inputs": [],
      "name": "renounceOwnership",
      "outputs": [],
      "stateMutability": "nonpayable",
      "type": "function"
    },
    {
      "inputs": [
        {
          "internalType": "address",
          "name": "_operator",
          "type": "address"
        },
        {
          "internalType": "bool",
          "name": "_approved",
          "type": "bool"
        }
      ],
      "name": "setBankOperator",
      "outputs": [],
      "stateMutability": "nonpayable",
      "type": "function"
    },
    {
      "inputs": [
        {
          "internalType": "address",
          "name": "newOwner",
          "type": "address"
        }
      ],
      "name": "setOwner",
      "outputs": [],
      "stateMutability": "nonpayable",
      "type": "function"
    },
    {
      "inputs": [
        {
          "internalType": "enum Types.GuardianStatus",
          "name": "_newStatus",
          "type": "uint8"
        }
      ],
      "name": "setWithdrawalStatus",
      "outputs": [],
      "stateMutability": "nonpayable",
      "type": "function"
    },
    {
      "inputs": [],
      "name": "token",
      "outputs": [
        {
          "internalType": "address",
          "name": "",
          "type": "address"
        }
      ],
      "stateMutability": "view",
      "type": "function"
    },
    {
      "inputs": [
        {
          "internalType": "address",
          "name": "_account",
          "type": "address"
        },
        {
          "internalType": "address",
          "name": "_destination",
          "type": "address"
        },
        {
          "internalType": "uint128",
          "name": "_amount",
          "type": "uint128"
        }
      ],
      "name": "transferMarginToAccount",
      "outputs": [],
      "stateMutability": "nonpayable",
      "type": "function"
    },
    {
      "inputs": [],
      "name": "updateOwner",
      "outputs": [],
      "stateMutability": "nonpayable",
      "type": "function"
    },
    {
      "inputs": [
        {
          "internalType": "address",
          "name": "_destination",
          "type": "address"
        },
        {
          "internalType": "uint128",
          "name": "_amount",
          "type": "uint128"
        }
      ],
      "name": "withdrawFromBank",
      "outputs": [],
      "stateMutability": "nonpayable",
      "type": "function"
    }
  ],
  "bytecode": "0x608060405234801561001057600080fd5b50611946806100206000396000f3fe608060405234801561001057600080fd5b506004361061010b5760003560e01c80637b1657c7116100a257806397a5e1441161007157806397a5e1441461025d5780639aacb467146102655780639ff5c88914610288578063bc5920ba1461029b578063fc0c546a146102a357600080fd5b80637b1657c7146101c65780637c7a7596146101d95780638b1681a6146102235780638da5cb5b1461024c57600080fd5b8063419dd428116100de578063419dd42814610173578063485cc955146101865780636c8381f814610199578063715018a6146101be57600080fd5b8063053834ee1461011057806313af4035146101385780632bce5f251461014d5780632c428e4e14610160575b600080fd5b61012361011e3660046115ad565b6102b6565b60405190151581526020015b60405180910390f35b61014b6101463660046114e9565b61040d565b005b61014b61015b366004611535565b610595565b61014b61016e3660046115f2565b6107b1565b61014b6101813660046115ad565b61088a565b61014b610194366004611503565b610a23565b6066546001600160a01b03165b6040516001600160a01b03909116815260200161012f565b61014b610b27565b61014b6101d4366004611577565b610ba7565b61020b6101e73660046114e9565b6001600160a01b0316600090815260cd60205260409020546001600160801b031690565b6040516001600160801b03909116815260200161012f565b61020b6102313660046114e9565b60cd602052600090815260409020546001600160801b031681565b6065546001600160a01b03166101a6565b610123610c60565b6101236102733660046114e9565b60cc6020526000908152604090205460ff1681565b60ce546101a6906001600160a01b031681565b61014b610c95565b60cb546101a6906001600160a01b031681565b6000600260015414156102e45760405162461bcd60e51b81526004016102db906117c6565b60405180910390fd5b600260015560cb5461030a906001600160a01b03163330856001600160801b0316610dd5565b6103198264e8d4a51000611837565b6001600160a01b038416600090815260cd60205260408120805490919061034a9084906001600160801b03166117fd565b92506101000a8154816001600160801b0302191690836001600160801b03160217905550826001600160a01b031661037f3390565b6001600160a01b03167f362dc4437434742f4bfcbefa9a40555fb345c70bd06af722e8e3f736d932ef8f60006103ba8664e8d4a51000611837565b33600090815260cd6020526040808220546001600160a01b038b168352918190205490516103f99493926001600160801b03908116921690429061165c565b60405180910390a350600180805592915050565b6065546001600160a01b031633146104375760405162461bcd60e51b81526004016102db906116e0565b6001600160a01b0381166104985760405162461bcd60e51b815260206004820152602260248201527f46464c5946694f776e61626c65557067726164653a207a65726f206164647265604482015261737360f01b60648201526084016102db565b6065546001600160a01b03828116911614156105055760405162461bcd60e51b815260206004820152602660248201527f46464c5946694f776e61626c65557067726164653a2073616d65206173206f726044820152651a59da5b985b60d21b60648201526084016102db565b6066546001600160a01b03828116911614156105735760405162461bcd60e51b815260206004820152602760248201527f46464c5946694f776e61626c65557067726164653a2073616d652061732063616044820152666e64696461746560c81b60648201526084016102db565b606680546001600160a01b0319166001600160a01b0392909216919091179055565b600260015414156105b85760405162461bcd60e51b81526004016102db906117c6565b600260015533600090815260cc602052604090205460ff1661062e5760405162461bcd60e51b815260206004820152602960248201527f4d617267696e42616e6b3a2063616c6c6572206973206e6f7420612062616e6b6044820152681037b832b930ba37b960b91b60648201526084016102db565b6001600160a01b038316600090815260cd6020908152604091829020548251808401909352601a83527f496e73756666696369656e74206163636f756e742066756e64730000000000009183019190915261069c916001600160801b03808516921691909110159085610e46565b6001600160a01b038316600090815260cd6020526040812080548392906106cd9084906001600160801b0316611866565b82546101009290920a6001600160801b038181021990931691831602179091556001600160a01b038416600090815260cd6020526040812080548594509092610718918591166117fd565b82546101009290920a6001600160801b038181021990931691831602179091556001600160a01b03858116600081815260cd60205260408082205493881680835291205490945090927f362dc4437434742f4bfcbefa9a40555fb345c70bd06af722e8e3f736d932ef8f9260029287929182169116425b6040516107a095949392919061165c565b60405180910390a350506001805550565b600260015414156107d45760405162461bcd60e51b81526004016102db906117c6565b600260015560ce546001600160a01b0316331461084b5760405162461bcd60e51b815260206004820152602f60248201527f4d617267696e42616e6b3a2063616c6c6572206973206e6f742074686520677560448201526e185c991a585b8818dbdb9d1c9858dd608a1b60648201526084016102db565b60ce805482919060ff60a01b1916600160a01b83600181111561087e57634e487b7160e01b600052602160045260246000fd5b02179055505060018055565b600260015414156108ad5760405162461bcd60e51b81526004016102db906117c6565b6002600155336108bb610c60565b6109215760405162461bcd60e51b815260206004820152603160248201527f4d617267696e42616e6b3a205769746864726177616c73206e6f7420616c6c6f6044820152701dd95908185d081d1a19481b5bdb595b9d607a1b60648201526084016102db565b60cb54610941906001600160a01b0316846001600160801b038516610e8c565b6109508264e8d4a51000611837565b6001600160a01b038216600090815260cd6020526040812080549091906109819084906001600160801b0316611866565b92506101000a8154816001600160801b0302191690836001600160801b03160217905550826001600160a01b0316816001600160a01b03167f362dc4437434742f4bfcbefa9a40555fb345c70bd06af722e8e3f736d932ef8f60018564e8d4a510006109ed9190611837565b6001600160a01b03868116600090815260cd602052604080822054928b1682529020546001600160801b0391821691164261078f565b600054610100900460ff1615808015610a435750600054600160ff909116105b80610a5d5750303b158015610a5d575060005460ff166001145b610a795760405162461bcd60e51b81526004016102db9061172d565b6000805460ff191660011790558015610a9c576000805461ff0019166101001790555b60cb80546001600160a01b038086166001600160a01b03199283161790925560ce805492851692909116919091179055610ad4610ebc565b610adc610f8f565b8015610b22576000805461ff0019169055604051600181527f7f26b83ff96e1f2b6a682f133852f6798a09c465da95921460cefb38474024989060200160405180910390a15b505050565b6065546001600160a01b03163314610b515760405162461bcd60e51b81526004016102db906116e0565b6065546040516000916001600160a01b0316907f8be0079c531659141344cd1fd0a4f28419497f9722a3daafe3b4186f6b6457e0908390a3606580546001600160a01b0319908116909155606680549091169055565b6065546001600160a01b03163314610bd15760405162461bcd60e51b81526004016102db906116e0565b60026001541415610bf45760405162461bcd60e51b81526004016102db906117c6565b60026001556001600160a01b038216600081815260cc6020908152604091829020805460ff19168515159081179091558251938452908301527f23a3d102fca7a9f251ba156fa3583ea391662039e1e0279b951ebd17dbf58bc3910160405180910390a1505060018055565b60008060ce54600160a01b900460ff166001811115610c8f57634e487b7160e01b600052602160045260246000fd5b14905090565b6066546001600160a01b0316610d055760405162461bcd60e51b815260206004820152602f60248201527f46464c5946694f776e61626c65557067726164653a2063616e6469646174652060448201526e6973207a65726f206164647265737360881b60648201526084016102db565b6066546001600160a01b03163314610d6f5760405162461bcd60e51b815260206004820152602760248201527f46464c5946694f776e61626c65557067726164653a206e6f7420746865206e656044820152663b9037bbb732b960c91b60648201526084016102db565b6066546065546040516001600160a01b0392831692909116907f8be0079c531659141344cd1fd0a4f28419497f9722a3daafe3b4186f6b6457e090600090a360668054606580546001600160a01b03199081166001600160a01b03841617909155169055565b6040516001600160a01b0380851660248301528316604482015260648101829052610e409085906323b872dd60e01b906084015b60408051601f198184030181529190526020810180516001600160e01b03166001600160e01b031990931692909217909152610fc0565b50505050565b82610b225781610e5582611092565b604051602001610e6692919061162d565b60408051601f198184030181529082905262461bcd60e51b82526102db916004016116ad565b6040516001600160a01b038316602482015260448101829052610b2290849063a9059cbb60e01b90606401610e09565b600054610100900460ff1615808015610edc5750600054600160ff909116105b80610ef65750303b158015610ef6575060005460ff166001145b610f125760405162461bcd60e51b81526004016102db9061172d565b6000805460ff191660011790558015610f35576000805461ff0019166101001790555b610f3d6111b5565b610f456111dc565b8015610f8c576000805461ff0019169055604051600181527f7f26b83ff96e1f2b6a682f133852f6798a09c465da95921460cefb3847402498906020015b60405180910390a15b50565b600054610100900460ff16610fb65760405162461bcd60e51b81526004016102db9061177b565b610fbe6112da565b565b6000611015826040518060400160405280602081526020017f5361666545524332303a206c6f772d6c6576656c2063616c6c206661696c6564815250856001600160a01b03166113079092919063ffffffff16565b805190915015610b22578080602001905181019061103391906115d6565b610b225760405162461bcd60e51b815260206004820152602a60248201527f5361666545524332303a204552433230206f7065726174696f6e20646964206e6044820152691bdd081cdd58d8d9595960b21b60648201526084016102db565b6040517f3a20307830303030303030302e2e2e3030303030303030000000000000000000602082015260609060009060370160408051601f1981840301815291905290506001600160a01b03831660a0602060045b600c8110156111aa576110fb60048461188e565b925061110860048361188e565b915061111584841c611320565b85828151811061113557634e487b7160e01b600052603260045260246000fd5b60200101906001600160f81b031916908160001a90535061115784831c611320565b8561116383600b61181f565b8151811061118157634e487b7160e01b600052603260045260246000fd5b60200101906001600160f81b031916908160001a905350806111a2816118d1565b9150506110e7565b509295945050505050565b600054610100900460ff16610fbe5760405162461bcd60e51b81526004016102db9061177b565b600054610100900460ff16158080156111fc5750600054600160ff909116105b806112165750303b158015611216575060005460ff166001145b6112325760405162461bcd60e51b81526004016102db9061172d565b6000805460ff191660011790558015611255576000805461ff0019166101001790555b606580546001600160a01b0319163390811790915560405181906000907f8be0079c531659141344cd1fd0a4f28419497f9722a3daafe3b4186f6b6457e0908290a3508015610f8c576000805461ff0019169055604051600181527f7f26b83ff96e1f2b6a682f133852f6798a09c465da95921460cefb384740249890602001610f83565b600054610100900460ff166113015760405162461bcd60e51b81526004016102db9061177b565b60018055565b6060611316848460008561134c565b90505b9392505050565b6000600f8216600a8110611335576057611338565b60305b611342908261181f565b60f81b9392505050565b6060824710156113ad5760405162461bcd60e51b815260206004820152602660248201527f416464726573733a20696e73756666696369656e742062616c616e636520666f6044820152651c8818d85b1b60d21b60648201526084016102db565b6001600160a01b0385163b6114045760405162461bcd60e51b815260206004820152601d60248201527f416464726573733a2063616c6c20746f206e6f6e2d636f6e747261637400000060448201526064016102db565b600080866001600160a01b031685876040516114209190611611565b60006040518083038185875af1925050503d806000811461145d576040519150601f19603f3d011682016040523d82523d6000602084013e611462565b606091505b509150915061147282828661147d565b979650505050505050565b6060831561148c575081611319565b82511561149c5782518084602001fd5b8160405162461bcd60e51b81526004016102db91906116ad565b80356001600160a01b03811681146114cd57600080fd5b919050565b80356001600160801b03811681146114cd57600080fd5b6000602082840312156114fa578081fd5b611319826114b6565b60008060408385031215611515578081fd5b61151e836114b6565b915061152c602084016114b6565b90509250929050565b600080600060608486031215611549578081fd5b611552846114b6565b9250611560602085016114b6565b915061156e604085016114d2565b90509250925092565b60008060408385031215611589578182fd5b611592836114b6565b915060208301356115a281611902565b809150509250929050565b600080604083850312156115bf578182fd5b6115c8836114b6565b915061152c602084016114d2565b6000602082840312156115e7578081fd5b815161131981611902565b600060208284031215611603578081fd5b813560028110611319578182fd5b600082516116238184602087016118a5565b9190910192915050565b6000835161163f8184602088016118a5565b8351908301906116538183602088016118a5565b01949350505050565b60a081016003871061167e57634e487b7160e01b600052602160045260246000fd5b9581526001600160801b0394851660208201529284166040840152908316606083015290911660809091015290565b60208152600082518060208401526116cc8160408501602087016118a5565b601f01601f19169190910160400192915050565b6020808252602d908201527f46464c5946694f776e61626c65557067726164653a2063616c6c65722069732060408201526c3737ba103a34329037bbb732b960991b606082015260800190565b6020808252602e908201527f496e697469616c697a61626c653a20636f6e747261637420697320616c72656160408201526d191e481a5b9a5d1a585b1a5e995960921b606082015260800190565b6020808252602b908201527f496e697469616c697a61626c653a20636f6e7472616374206973206e6f74206960408201526a6e697469616c697a696e6760a81b606082015260800190565b6020808252601f908201527f5265656e7472616e637947756172643a207265656e7472616e742063616c6c00604082015260600190565b60006001600160801b03808316818516808303821115611653576116536118ec565b60008219821115611832576118326118ec565b500190565b60006001600160801b038083168185168183048111821515161561185d5761185d6118ec565b02949350505050565b60006001600160801b0383811690831681811015611886576118866118ec565b039392505050565b6000828210156118a0576118a06118ec565b500390565b60005b838110156118c05781810151838201526020016118a8565b83811115610e405750506000910152565b60006000198214156118e5576118e56118ec565b5060010190565b634e487b7160e01b600052601160045260246000fd5b8015158114610f8c57600080fdfea26469706673582212202ba8a44886c5de0596cc4ec7928626d84ae6af7670c4e7feb4666098a9bb9f9964736f6c63430008040033",
  "linkReferences": {},
  "deployedLinkReferences": {}
}