{
  "_format": "hh-sol-artifact-1",
  "contractName": "DummyUSDC",
  "sourceName": "contracts/mock/DummyUSDC.sol",
  "abi": [
    {
      "inputs": [
        {
          "internalType": "string",
          "name": "_name",
          "type": "string"
        },
        {
          "internalType": "string",
          "name": "_symbol",
          "type": "string"
        },
        {
          "internalType": "uint128",
          "name": "_initialSupply",
          "type": "uint128"
        }
      ],
      "stateMutability": "nonpayable",
      "type": "constructor"
    },
    {
      "anonymous": false,
      "inputs": [
        {
          "indexed": true,
          "internalType": "address",
          "name": "owner",
          "type": "address"
        },
        {
          "indexed": true,
          "internalType": "address",
          "name": "spender",
          "type": "address"
        },
        {
          "indexed": false,
          "internalType": "uint256",
          "name": "value",
          "type": "uint256"
        }
      ],
      "name": "Approval",
      "type": "event"
    },
    {
      "anonymous": false,
      "inputs": [
        {
          "indexed": true,
          "internalType": "address",
          "name": "from",
          "type": "address"
        },
        {
          "indexed": true,
          "internalType": "address",
          "name": "to",
          "type": "address"
        },
        {
          "indexed": false,
          "internalType": "uint256",
          "name": "value",
          "type": "uint256"
        }
      ],
      "name": "Transfer",
      "type": "event"
    },
    {
      "inputs": [
        {
          "internalType": "address",
          "name": "owner",
          "type": "address"
        },
        {
          "internalType": "address",
          "name": "spender",
          "type": "address"
        }
      ],
      "name": "allowance",
      "outputs": [
        {
          "internalType": "uint256",
          "name": "",
          "type": "uint256"
        }
      ],
      "stateMutability": "view",
      "type": "function"
    },
    {
      "inputs": [
        {
          "internalType": "address",
          "name": "spender",
          "type": "address"
        },
        {
          "internalType": "uint256",
          "name": "amount",
          "type": "uint256"
        }
      ],
      "name": "approve",
      "outputs": [
        {
          "internalType": "bool",
          "name": "",
          "type": "bool"
        }
      ],
      "stateMutability": "nonpayable",
      "type": "function"
    },
    {
      "inputs": [
        {
          "internalType": "address",
          "name": "account",
          "type": "address"
        }
      ],
      "name": "balanceOf",
      "outputs": [
        {
          "internalType": "uint256",
          "name": "",
          "type": "uint256"
        }
      ],
      "stateMutability": "view",
      "type": "function"
    },
    {
      "inputs": [],
      "name": "decimals",
      "outputs": [
        {
          "internalType": "uint8",
          "name": "",
          "type": "uint8"
        }
      ],
      "stateMutability": "view",
      "type": "function"
    },
    {
      "inputs": [
        {
          "internalType": "address",
          "name": "spender",
          "type": "address"
        },
        {
          "internalType": "uint256",
          "name": "subtractedValue",
          "type": "uint256"
        }
      ],
      "name": "decreaseAllowance",
      "outputs": [
        {
          "internalType": "bool",
          "name": "",
          "type": "bool"
        }
      ],
      "stateMutability": "nonpayable",
      "type": "function"
    },
    {
      "inputs": [
        {
          "internalType": "address",
          "name": "spender",
          "type": "address"
        },
        {
          "internalType": "uint256",
          "name": "addedValue",
          "type": "uint256"
        }
      ],
      "name": "increaseAllowance",
      "outputs": [
        {
          "internalType": "bool",
          "name": "",
          "type": "bool"
        }
      ],
      "stateMutability": "nonpayable",
      "type": "function"
    },
    {
      "inputs": [
        {
          "internalType": "address",
          "name": "_recipient",
          "type": "address"
        },
        {
          "internalType": "uint128",
          "name": "_amount",
          "type": "uint128"
        }
      ],
      "name": "mint",
      "outputs": [],
      "stateMutability": "nonpayable",
      "type": "function"
    },
    {
      "inputs": [],
      "name": "name",
      "outputs": [
        {
          "internalType": "string",
          "name": "",
          "type": "string"
        }
      ],
      "stateMutability": "view",
      "type": "function"
    },
    {
      "inputs": [],
      "name": "symbol",
      "outputs": [
        {
          "internalType": "string",
          "name": "",
          "type": "string"
        }
      ],
      "stateMutability": "view",
      "type": "function"
    },
    {
      "inputs": [],
      "name": "totalSupply",
      "outputs": [
        {
          "internalType": "uint256",
          "name": "",
          "type": "uint256"
        }
      ],
      "stateMutability": "view",
      "type": "function"
    },
    {
      "inputs": [
        {
          "internalType": "address",
          "name": "to",
          "type": "address"
        },
        {
          "internalType": "uint256",
          "name": "amount",
          "type": "uint256"
        }
      ],
      "name": "transfer",
      "outputs": [
        {
          "internalType": "bool",
          "name": "",
          "type": "bool"
        }
      ],
      "stateMutability": "nonpayable",
      "type": "function"
    },
    {
      "inputs": [
        {
          "internalType": "address",
          "name": "from",
          "type": "address"
        },
        {
          "internalType": "address",
          "name": "to",
          "type": "address"
        },
        {
          "internalType": "uint256",
          "name": "amount",
          "type": "uint256"
        }
      ],
      "name": "transferFrom",
      "outputs": [
        {
          "internalType": "bool",
          "name": "",
          "type": "bool"
        }
      ],
      "stateMutability": "nonpayable",
      "type": "function"
    }
  ],
  "bytecode": "0x60806040523480156200001157600080fd5b5060405162000db238038062000db28339810160408190526200003491620002cb565b8251839083906200004d90600390602085019062000172565b5080516200006390600490602084019062000172565b5050506200008133826001600160801b03166200008a60201b60201c565b505050620003cc565b6001600160a01b038216620000e55760405162461bcd60e51b815260206004820152601f60248201527f45524332303a206d696e7420746f20746865207a65726f206164647265737300604482015260640160405180910390fd5b8060026000828254620000f9919062000354565b90915550506001600160a01b038216600090815260208190526040812080548392906200012890849062000354565b90915550506040518181526001600160a01b038316906000907fddf252ad1be2c89b69c2b068fc378daa952ba7f163c4a11628f55a4df523b3ef9060200160405180910390a35050565b828054620001809062000379565b90600052602060002090601f016020900481019282620001a45760008555620001ef565b82601f10620001bf57805160ff1916838001178555620001ef565b82800160010185558215620001ef579182015b82811115620001ef578251825591602001919060010190620001d2565b50620001fd92915062000201565b5090565b5b80821115620001fd576000815560010162000202565b600082601f83011262000229578081fd5b81516001600160401b0380821115620002465762000246620003b6565b604051601f8301601f19908116603f01168101908282118183101715620002715762000271620003b6565b816040528381526020925086838588010111156200028d578485fd5b8491505b83821015620002b0578582018301518183018401529082019062000291565b83821115620002c157848385830101525b9695505050505050565b600080600060608486031215620002e0578283fd5b83516001600160401b0380821115620002f7578485fd5b620003058783880162000218565b945060208601519150808211156200031b578384fd5b506200032a8682870162000218565b604086015190935090506001600160801b038116811462000349578182fd5b809150509250925092565b600082198211156200037457634e487b7160e01b81526011600452602481fd5b500190565b600181811c908216806200038e57607f821691505b60208210811415620003b057634e487b7160e01b600052602260045260246000fd5b50919050565b634e487b7160e01b600052604160045260246000fd5b6109d680620003dc6000396000f3fe608060405234801561001057600080fd5b50600436106100b45760003560e01c806370a082311161007157806370a082311461014157806395d89b411461016a578063a457c2d714610172578063a9059cbb14610185578063be29184f14610198578063dd62ed3e146101ad57600080fd5b806306fdde03146100b9578063095ea7b3146100d757806318160ddd146100fa57806323b872dd1461010c578063313ce5671461011f578063395093511461012e575b600080fd5b6100c16101c0565b6040516100ce91906108ee565b60405180910390f35b6100ea6100e53660046108c5565b610252565b60405190151581526020016100ce565b6002545b6040519081526020016100ce565b6100ea61011a366004610849565b61026a565b604051600681526020016100ce565b6100ea61013c3660046108c5565b61028e565b6100fe61014f3660046107f6565b6001600160a01b031660009081526020819052604090205490565b6100c16102b0565b6100ea6101803660046108c5565b6102bf565b6100ea6101933660046108c5565b61033f565b6101ab6101a6366004610884565b61034d565b005b6100fe6101bb366004610817565b610364565b6060600380546101cf90610965565b80601f01602080910402602001604051908101604052809291908181526020018280546101fb90610965565b80156102485780601f1061021d57610100808354040283529160200191610248565b820191906000526020600020905b81548152906001019060200180831161022b57829003601f168201915b5050505050905090565b60003361026081858561038f565b5060019392505050565b6000336102788582856104b3565b61028385858561052d565b506001949350505050565b6000336102608185856102a18383610364565b6102ab9190610941565b61038f565b6060600480546101cf90610965565b600033816102cd8286610364565b9050838110156103325760405162461bcd60e51b815260206004820152602560248201527f45524332303a2064656372656173656420616c6c6f77616e63652062656c6f77604482015264207a65726f60d81b60648201526084015b60405180910390fd5b610283828686840361038f565b60003361026081858561052d565b61036082826001600160801b03166106fb565b5050565b6001600160a01b03918216600090815260016020908152604080832093909416825291909152205490565b6001600160a01b0383166103f15760405162461bcd60e51b8152602060048201526024808201527f45524332303a20617070726f76652066726f6d20746865207a65726f206164646044820152637265737360e01b6064820152608401610329565b6001600160a01b0382166104525760405162461bcd60e51b815260206004820152602260248201527f45524332303a20617070726f766520746f20746865207a65726f206164647265604482015261737360f01b6064820152608401610329565b6001600160a01b0383811660008181526001602090815260408083209487168084529482529182902085905590518481527f8c5be1e5ebec7d5bd14f71427d1e84f3dd0314c0f7b2291e5b200ac8c7c3b925910160405180910390a3505050565b60006104bf8484610364565b90506000198114610527578181101561051a5760405162461bcd60e51b815260206004820152601d60248201527f45524332303a20696e73756666696369656e7420616c6c6f77616e63650000006044820152606401610329565b610527848484840361038f565b50505050565b6001600160a01b0383166105915760405162461bcd60e51b815260206004820152602560248201527f45524332303a207472616e736665722066726f6d20746865207a65726f206164604482015264647265737360d81b6064820152608401610329565b6001600160a01b0382166105f35760405162461bcd60e51b815260206004820152602360248201527f45524332303a207472616e7366657220746f20746865207a65726f206164647260448201526265737360e81b6064820152608401610329565b6001600160a01b0383166000908152602081905260409020548181101561066b5760405162461bcd60e51b815260206004820152602660248201527f45524332303a207472616e7366657220616d6f756e7420657863656564732062604482015265616c616e636560d01b6064820152608401610329565b6001600160a01b038085166000908152602081905260408082208585039055918516815290812080548492906106a2908490610941565b92505081905550826001600160a01b0316846001600160a01b03167fddf252ad1be2c89b69c2b068fc378daa952ba7f163c4a11628f55a4df523b3ef846040516106ee91815260200190565b60405180910390a3610527565b6001600160a01b0382166107515760405162461bcd60e51b815260206004820152601f60248201527f45524332303a206d696e7420746f20746865207a65726f2061646472657373006044820152606401610329565b80600260008282546107639190610941565b90915550506001600160a01b03821660009081526020819052604081208054839290610790908490610941565b90915550506040518181526001600160a01b038316906000907fddf252ad1be2c89b69c2b068fc378daa952ba7f163c4a11628f55a4df523b3ef9060200160405180910390a35050565b80356001600160a01b03811681146107f157600080fd5b919050565b600060208284031215610807578081fd5b610810826107da565b9392505050565b60008060408385031215610829578081fd5b610832836107da565b9150610840602084016107da565b90509250929050565b60008060006060848603121561085d578081fd5b610866846107da565b9250610874602085016107da565b9150604084013590509250925092565b60008060408385031215610896578182fd5b61089f836107da565b915060208301356001600160801b03811681146108ba578182fd5b809150509250929050565b600080604083850312156108d7578182fd5b6108e0836107da565b946020939093013593505050565b6000602080835283518082850152825b8181101561091a578581018301518582016040015282016108fe565b8181111561092b5783604083870101525b50601f01601f1916929092016040019392505050565b6000821982111561096057634e487b7160e01b81526011600452602481fd5b500190565b600181811c9082168061097957607f821691505b6020821081141561099a57634e487b7160e01b600052602260045260246000fd5b5091905056fea26469706673582212204090fc316510124c41761aa38bf0dc2852042412d8cf0472384c08d04f427a3c64736f6c63430008040033",
  "linkReferences": {},
  "deployedLinkReferences": {}
}